{
  "transactions": [
    {
      "hash": "0x4dca9743887e15927e67e9bf8fc6fd5b9563d12c217a81c65c373d3aeb1c7e89",
      "transactionType": "CALL",
      "contractName": null,
      "contractAddress": "0xce0df6430fbc9a735b6509b69559788ec07a801b",
      "function": "mintNft(string)",
      "arguments": [
        "ipfs://QmSEDJ7zbD2QVAchf8QCEbLTCtebK713veCiz1eLZCibhE/?filename=0-PUG.json"
      ],
      "transaction": {
        "from": "0x488eeef86c235dc6528aa990410092257032f8eb",
        "to": "0xce0df6430fbc9a735b6509b69559788ec07a801b",
        "gas": "0x413a4",
        "value": "0x0",
        "input": "0xda86f4a90000000000000000000000000000000000000000000000000000000000000020000000000000000000000000000000000000000000000000000000000000004a697066733a2f2f516d5345444a377a62443251564163686638514345624c54437465624b373133766543697a31654c5a43696268452f3f66696c656e616d653d302d5055472e6a736f6e00000000000000000000000000000000000000000000",
        "nonce": "0xc",
        "chainId": "0xaa36a7"
      },
      "additionalContracts": [],
      "isFixedGasLimit": false
    }
  ],
  "receipts": [
    {
      "status": "0x1",
      "cumulativeGasUsed": "0x17b5a91",
      "logs": [
        {
          "address": "0xce0df6430fbc9a735b6509b69559788ec07a801b",
          "topics": [
            "0xddf252ad1be2c89b69c2b068fc378daa952ba7f163c4a11628f55a4df523b3ef",
            "0x0000000000000000000000000000000000000000000000000000000000000000",
            "0x000000000000000000000000488eeef86c235dc6528aa990410092257032f8eb",
            "0x0000000000000000000000000000000000000000000000000000000000000000"
          ],
          "data": "0x",
          "blockHash": "0x09fee597121ce7636984db9edb9af387b6840e5c0b3d5d42bbd5c1fe2421bd82",
          "blockNumber": "0x7e9595",
          "blockTimestamp": "0x681f1f2c",
          "transactionHash": "0x4dca9743887e15927e67e9bf8fc6fd5b9563d12c217a81c65c373d3aeb1c7e89",
          "transactionIndex": "0xbd",
          "logIndex": "0x14b",
          "removed": false
        }
      ],
      "logsBloom": "0x00000000000000000000000000000000000000080000000000000000000000000000000000000000000000000000000000000000000000000000000000000000000000000000000000000008000000000000000000000000000000000000000000000000020000000000000000000800000008000000000000000010000000000010000800000000000000000000000020000000000000000000000000000000000000000000000000000000000000000000000000000000000000000000000000000002001000000000000000000000000000000000000000000000000020000000000000000000000000000000000000000000000000000000000000000000",
      "type": "0x2",
      "transactionHash": "0x4dca9743887e15927e67e9bf8fc6fd5b9563d12c217a81c65c373d3aeb1c7e89",
      "transactionIndex": "0xbd",
      "blockHash": "0x09fee597121ce7636984db9edb9af387b6840e5c0b3d5d42bbd5c1fe2421bd82",
      "blockNumber": "0x7e9595",
      "gasUsed": "0x2c99a",
      "effectiveGasPrice": "0xf4251",
      "from": "0x488eeef86c235dc6528aa990410092257032f8eb",
      "to": "0xce0df6430fbc9a735b6509b69559788ec07a801b",
      "contractAddress": null
    }
  ],
  "libraries": [],
  "pending": [],
  "returns": {},
  "timestamp": 1746870060,
  "chain": 11155111,
  "commit": null
}